:100000000C94D8030C94F5030C94F5030C94B00FE6
:100010000C9419340C94F5030C94F5030C94F5032B
:100020000C94F5030C94F5030C94F5030C949F3198
:100030000C94F5030C94F5030C94F5030C94F50360
:100040000C94482A0C94F5030C9429260C94E4256E
:100050000C94F5030C94F5030C94F5030C94F50340
:100060000C94F5030C94F503622769276C276F271E
:1000700074277E278A27FF27FF27FF2794279727A4
:10008000A027A927FF27FF27FF27FF27FF27FF27F5
:10009000B327C127CF27D927DC27E527EE27F3276A
:1000A000084AD73B3BCE016E84BCBFFDC12F3D6CDF
:1000B00074319ABD56833DDA3D00C77F11BED9E445
:1000C000BB4C3E916BAAAABE000000803F05A84C25
:1000D000CDB2D44EB93836A9020C50B991868808F1
:1000E0003CA6AAAA2ABE000000803F3E0D0A002CB2
:1000F00052583A002C4275663A002C002C57506F2B
:10010000733A002C002C4D506F733A003C446F6FD3
:1001100072003C436865636B003C416C61726D002A
:100120003C486F6D65003C486F6C64003C52756ED6
:10013000003C49646C65005D0D0A005B6563686F97
:100140003A20005D0D0A005B302E39692E323031C5
:1001500035303332393A000D0A003D00244E005D3F
:100160000D0A00205300204600205400204D380086
:10017000204D3900204D3500204D3400204D3300F6
:10018000204D3200204D3100204D300020473934C1
:1001900000204739330020473931002047393000EB
:1001A00020473230002047323100204731390020CB
:1001B0004731380020473137002047004733382E79
:1001C000004738300047330047320047310047309E
:1001D000005B005D0D0A005B544C4F3A005D0D0A58
:1001E000002C005B4739323A005D0D0A002C003AC2
:1001F000003330003238005B47005D0D0A003A00E2
:100200002C005B5052423A00290D0A00206D6178A3
:100210002074726176656C2C206D6D0020616363C3
:10022000656C2C206D6D2F7365635E3200206D61EF
:100230007820726174652C206D6D2F6D696E002CB5
:1002400020737465702F6D6D007A0079007800203E
:1002500028003D0024002028686F6D696E672070BB
:10026000756C6C2D6F66662C206D6D290D0A002053
:1002700028686F6D696E67206465626F756E63656F
:100280002C206D736563290D0A2432373D00202828
:10029000686F6D696E67207365656B2C206D6D2FBF
:1002A0006D696E290D0A2432363D002028686F6D75
:1002B000696E6720666565642C206D6D2F6D696EB3
:1002C000290D0A2432353D00290D0A2432343D001F
:1002D0002028686F6D696E672064697220696E7688
:1002E000657274206D61736B3A002028686F6D69C8
:1002F0006E67206379636C652C20626F6F6C290DCB
:100300000A2432333D00202868617264206C696DD4
:100310006974732C20626F6F6C290D0A2432323D90
:10032000002028736F6674206C696D6974732C20CB
:10033000626F6F6C290D0A2432313D0020287265EE
:10034000706F727420696E636865732C20626F6FC2
:100350006C290D0A2432303D00202861726320741C
:100360006F6C6572616E63652C206D6D290D0A24BA
:1003700031333D0020286A756E6374696F6E2064A6
:100380006576696174696F6E2C206D6D290D0A2484
:1003900031323D00290D0A2431313D00202873748B
:1003A00061747573207265706F7274206D61736B08
:1003B0003A00202870726F62652070696E20696E45
:1003C000766572742C20626F6F6C290D0A243130AF
:1003D0003D0020286C696D69742070696E73206916
:1003E0006E766572742C20626F6F6C290D0A24364C
:1003F0003D0020287374657020656E61626C652015
:10040000696E766572742C20626F6F6C290D0A24F8
:10041000353D00290D0A24343D00202864697220EE
:10042000706F727420696E76657274206D61736B83
:100430003A00290D0A24333D00202873746570208A
:10044000706F727420696E76657274206D61736B63
:100450003A002028737465702069646C65206465B7
:100460006C61792C206D736563290D0A24323D007F
:100470002028737465702070756C73652C207573FB
:100480006563290D0A24313D0024303D00242420D9
:100490002876696577204772626C20736574746989
:1004A0006E6773290D0A2423202876696577202337
:1004B00020706172616D6574657273290D0A24473D
:1004C0002028766965772070617273657220737475
:1004D000617465290D0A24492028766965772062B0
:1004E00075696C6420696E666F290D0A244E202898
:1004F00076696577207374617274757020626C6FB1
:10050000636B73290D0A24783D76616C756520282C
:1005100073617665204772626C2073657474696ECE
:1005200067290D0A244E783D6C696E652028736139
:100530007665207374617274757020626C6F636B82
:10054000290D0A24432028636865636B2067636F65
:100550006465206D6F6465290D0A245820286B6935
:100560006C6C20616C61726D206C6F636B290D0A7D
:100570002448202872756E20686F6D696E6720634D
:1005800079636C65290D0A7E20286379636C652088
:100590007374617274290D0A2120286665656420D0
:1005A000686F6C64290D0A3F202863757272656E4E
:1005B0007420737461747573290D0A6374726C2DE1
:1005C0007820287265736574204772626C290D0A61
:1005D000000D0A4772626C20302E3969205B272497
:1005E0002720666F722068656C705D0D0A005D0DD6
:1005F0000A00436865636B20446F6F72004469733F
:1006000061626C656400456E61626C6564004361A3
:100610007574696F6E3A20556E6C6F636B6564001C
:10062000272448277C2724582720746F20756E6C58
:100630006F636B00526573657420746F20636F6E17
:1006400074696E7565005B000D0A00486F6D696E18
:1006500067206661696C0050726F6265206661692F
:100660006C0041626F727420647572696E672063FA
:1006700079636C6500536F6674206C696D697400F2
:1006800048617264206C696D697400414C41524D3F
:100690003A20000D0A00496E76616C696420676338
:1006A0006F64652049443A00556E646566696E65FD
:1006B000642066656564207261746500556E7375AB
:1006C00070706F7274656420636F6D6D616E64002D
:1006D0004D6F64616C2067726F75702076696F6C06
:1006E0006174696F6E004C696E65206F7665726625
:1006F0006C6F7700486F6D696E67206E6F74206550
:100700006E61626C656400416C61726D206C6F6338
:100710006B004E6F742069646C6500454550524F04
:100720004D2072656164206661696C2E2055736985
:100730006E672064656661756C74730056616C75D4
:1007400065203C20332075736563005365747469BC
:100750006E672064697361626C65640056616C75D4
:1007600065203C203000496E76616C6964207374AA
:100770006174656D656E7400426164206E756D62B2
:10078000657220666F726D61740045787065637480
:10079000656420636F6D6D616E64206C6574746553
:1007A00072006572726F723A20006F6B0D0A000062
:1007B00011241FBECFEFD8E0DEBFCDBF11E0A0E017
:1007C000B1E0E6E4F6E702C005900D92A830B1076B
:1007D000D9F716E0A8E0B1E001C01D92A93DB1072C
:1007E000E1F70E94F7030C94213B0C9400000E9457
:1007F000B1250E94FF280E945E2A0E94D13380E228
:10080000EFE2F5E0DF011D928A95E9F781E0809340
:100810002F0578948091C50684FF03C081E0809302
:1008200030050E9424260E94190F0E94BB290E94B5
:1008300030040E942D0F0E94861E0E947D1C0E9483
:100840006F310E94BB170E94120F10922F05109259
:10085000320510923305109231050E940E20E1CF2F
:100860003B9A4398089543980895823011F4439A2F
:100870000895439808951F93182F80913005823072
:1008800039F00E94F71F123011F4439A01C04398C7
:100890001F910895F999FECF92BD81BD81E08FBB74
:1008A00080B50895F894F999FECF92BD81BD81E09D
:1008B0008FBB90B59627892F862339F06F3F19F0AB
:1008C00060BD84E006C084E104C0992321F060BDCE
:1008D00084E28FBBF99A789408958F929F92AF9299
:1008E000BF92CF92DF92EF92FF920F93DF93CF935D
:1008F00000D0CDB7DEB75C016B017A014A0100E0A0
:100900001EC0002319F021E030E008C0202F33275B
:1009100027FD30952227330F221F3327F6016191DF
:100920006F01062F020F9C012F5F3F4F3A832983EF
:100930000E94520408948108910889819A81811447
:100940009104F9F6C7018A0D9B1D602F0E94520485
:100950000F900F90CF91DF910F91FF90EF90DF906C
:10096000CF90BF90AF909F908F900895CF93DF93DB
:10097000EC01FB019A0190E0B1E019C0F999FECFBA
:10098000F2BDE1BDBFBBA0B5992319F081E090E0B5
:1009900008C0892F992787FD90958827990F881F70
:1009A000992731969A2F980FA993215030402115FD
:1009B000310521F7460F571FF999FECF52BD41BDB2
:1009C00081E08FBB80B520E030E0981711F421E082
:1009D00030E0C901DF91CF9108952F923F924F925D
:1009E0005F926F927F928F929F92AF92BF92CF92BF
:1009F000DF92EF92FF920F931F93DF93CF93CDB7C8
:100A0000DEB7A8970FB6F894DEBF0FBECDBF1C01AE
:100A1000EEE8F5E089E3DF011D928A95E9F731966A
:100A2000AFE4B5E08AE00D9001928150E1F71982C0
:100A300066241F8E1E8E1CA27724AA24BB2461E08C
:100A4000462E512C9924939452E0852EAAC2802FD1
:100A500081548A3118F081E00C94F30E9F5F9983E2
:100A6000C101BE016F5F7F4FAE014E5F5F4F0E94BD
:100A70005C16882319F482E00C94F30ECA80DB80A4
:100A8000EC80FD80C701B6010E94CF390E94373744
:100A9000162F70E0882777FD8095982F0E94653784
:100AA0009B01AC01C701B6010E94E93520E030E0AE
:100AB00048EC52E40E9401390E9464390E943737A1
:100AC0009B01073421F00D3409F091C143C1183264
:100AD00009F446C0193200F5143170F4113108F0F0
:100AE000E2C0143009F448C0143008F494C01A303D
:100AF00011F00C94E20E36C01C31A1F11D3128F426
:100B0000163110F00C94E20EFBC01E3159F1163272
:100B100011F00C94E20E7FC0103509F483C011353A
:100B200088F4153349F1163340F41B3209F4F1C04F
:100B3000113311F00C94E20EECC01C3310F00C9445
:100B4000E20EFFC01C3571F01D3528F41A3510F483
:100B50000C94E20EB8C01F3510F00C94E20EC7C022
:100B600087E0F3C02115310539F4BCA1BB2311F096
:100B70000C94E00EE1E0ECA31C31A9F01D3128F447
:100B8000143051F01A3069F40AC0153371F11C3574
:100B900081F11E3131F418C090928E0502C080920E
:100BA0008E0580E0D2C02115310531F02A303105A3
:100BB00011F00C94E20E04C0F3E0F0938E0529C00E
:100BC00024E020938E0525C02115310531F02A300F
:100BD000310511F00C94E20E04C085E080938E057F
:100BE00018C096E090938E0514C0A7E0A0938E05E0
:100BF000D8CF2115310531F02A30310511F00C9490
:100C0000E20E04C0B8E0B0938E0503C0E9E0E093C3
:100C10008E0580E0DCC0FCA1FF2311F00C94E00EF7
:100C200082E08CA3123089F0133028F4112351F0A4
:100C3000113069F40AC0163261F0103581F11330B9
:100C400031F403C010928F0502C010938F0581E02C
:100C50007CC02E313105B1F02F31310530F4243113
:100C6000310511F00C94E20E09C02832310571F003
:100C70002233310511F00C94E20E0CC094E09093F5
:100C80008F050BC0A5E0A0938F0507C0B6E0B09319
:100C90008F0503C0E7E0E0938F0581E098C0F8E09E
:100CA000F0938F05D4CF123139F0133149F011315F
:100CB00029F41092930502C09092930582E045C0FA
:100CC00080929305FBCF6115710551F41A3521F41B
:100CD000109292050C940F0F909292050C940F0FA6
:100CE0006A30710511F40C940C0F0C94E20E1D3552
:100CF00019F49092900502C01092900585E025C0ED
:100D0000143119F49092910502C01092910586E079
:100D10001CC08CA1882311F00C94E00E113331F427
:100D20001092940588E093E09CA351C02A303105CD
:100D300011F00C94E20E9092940588E0A3E0ACA32D
:100D400046C016531093950589E0232B09F43FC044
:100D50000C94E40E672B11F00C94E40E153001F1A5
:100D6000163038F4133078F0133011F00C94E20E92
:100D700017C0183010F40C94E20E1A30E8F01E314F
:100D800011F00C94E20E123041F01E3131F01123BB
:100D900011F4909296058AE01AC080929605FBCFD6
:100DA000133019F0153031F403C09092980502C049
:100DB000109298058BE00BC0183019F0193031F4FF
:100DC00003C08092970502C0109297058CE09201B3
:100DD00002C0220F331F8A95E2F7C9018A219B21A5
:100DE000892B11F00C94E60EA22AB32ADAC0003542
:100DF00009F46CC0013598F40A34F1F10B3430F485
:100E0000063421F1093409F0DDC72AC00C3409F495
:100E10004BC00C34E8F10E3409F0D4C749C0043596
:100E200099F0053538F4023509F45AC0033509F054
:100E3000C9C760C0093509F473C00A3509F47CC01C
:100E4000083509F0BFC760C029E081C0C09299058C
:100E5000D0929A05E0929B05F0929C0520E077C025
:100E6000C0929D05D0929E05E0929F05F092A0054C
:100E7000B1E06B2A21E06BC0C092A105D092A2051F
:100E8000E092A305F092A405E2E06E2A22E05FC0A2
:100E9000C092A505D092A605E092A705F092A805FC
:100EA000F4E06F2A23E053C01093A90524E04FC05B
:100EB000C701B6010E9432376093AA057093AB0553
:100EC0008093AC059093AD0525E041C0C092AE057E
:100ED000D092AF05E092B005F092B10526E037C0A0
:100EE000C092B205D092B305E092B405F092B50578
:100EF00027E02DC0C092B605D092B705E092B805A4
:100F0000F092B90528E023C0C092BB05D092BC0581
:100F1000E092BD05F092BE0521E0722A2AE017C0DA
:100F2000C092BF05D092C005E092C105F092C20503
:100F300082E0782A2BE00BC0C092C305D092C40592
:100F4000E092C505F092C60594E0792A2CE0820172
:100F5000022E02C0000F111F0A94E2F78E8D9F8DA2
:100F600080239123892B11F089E13DC781E693E02D
:100F700002C0959587952A95E2F780FF0CC0C701BE
:100F8000B60120E030E040E050E00E94C336882304
:100F900014F484E028C7AE8DBF8DA02BB12BBF8F7A
:100FA000AE8F9981F101E90FF11D0081002309F055
:100FB0004ECD772029F0BCA1BB2311F4E2E0ECA3D5
:100FC000FE8DF5FF0FC08091AA059091AB05A09111
:100FD000AC05B091AD0580589649A849B04014F0D1
:100FE0008BE101C780919005813039F48CA182306A
:100FF000B1F59E8D90FD33C0EBC6809150058823DE
:1010000071F5AE8DA0FF1BC080919105813039F53F
:101010006091990570919A0580919B0590919C052E
:1010200023E333E34BEC51E40E94013960939905CB
:1010300070939A0580939B0590939C0510C08091B6
:101040005D0590915E05A0915F05B091600580936C
:10105000990590939A05A0939B05B0939C05EE8DFE
:10106000FF8DF0FD10C08091590590915A05A09117
:101070005B05B0915C058093B6059093B705A0938E
:10108000B805B093B90580918E05813041F4FE8D8D
:10109000F6FFA0C68E8D9F8D8F7B9F8F8E8F809148
:1010A0009305882341F0813061F491E099A3A2E097
:1010B000ABA31AA20BC0B2E0B9A31BA2E1E0EAA362
:1010C00005C019A2F1E0FBA322E02AA380919105BB
:1010D000813051F54BEBE42E45E0F42E00E010E0BA
:1010E000C72CDD24C601002E02C0959587950A9471
:1010F000E2F780FF10C0D7016D917D918D919C9199
:1011000023E333E34BEC51E40E940139F7016083A0
:101110007183828393830F5F1F4F84E090E0E80E1A
:10112000F91E03301105F1F69CA1933049F480912A
:101130009405813029F4A4E07A1611F085E253C6B3
:10114000DE011696E2E7F5E08CE001900D92815009
:10115000E1F7B1FE12C090919505973008F03CC6BA
:1011600080915505891749F0892FBE016A5F7F4F2D
:101170000E94D428882309F431C680918E058230DC
:1011800021F0883009F0FDC09AC0772009F428C604
:101190008E8D9F8D80759070892B09F41BC6609190
:1011A000AE057091AF058091B0059091B1050E9498
:1011B000CF390E943737673008F00EC62091A90555
:1011C000243131F0223009F0FDC5BE8DB7FDFAC5DE
:1011D000662319F0615068A303C0E0919505E8A368
:1011E0008E010E5E1F4F88A1B8010E94D42888236B
:1011F00009F4F4C578013BEB832E35E0932E26E607
:10120000C22E25E0D22E00E010E0A72CBB24C501A1
:10121000002E02C0959587950A94E2F780FF3BC0A7
:101220008091A905843169F5D6016D917D918D91EB
:101230009C91139758962D913D914D915C915B97A0
:101240000E94E935F40120813181428153810E945D
:10125000E935D7016D937D938D939C93139702305D
:10126000D1F420918A0530918B0540918C055091E5
:101270008D050E94E935F701608371838283938332
:101280000AC0F40180819181A281B381F70180833A
:101290009183A283B3830F5F1F4F84E090E0E80E39
:1012A000F91E880E991EC80ED91E0330110509F0CB
:1012B000AECFAE8DBF8DAF7ABF8FAE8F02C177201C
:1012C00009F48EC50BEB15E096E6C92E95E0D92EF4
:1012D00086E0882E912C8C0E9D1EEE24FF24A72CD8
:1012E000BB24C5010E2C02C0959587950A94E2F7A0
:1012F00080FF2CC0F6016081718182819381D401CD
:101300002D913D914D915C910E94E935F80120812C
:101310003181428153810E94E935D8016D937D93DB
:101320008D939C931397B2E0EB16D1F420918A052C
:1013300030918B0540918C0550918D050E94E935C7
:10134000F80160837183828393830AC0F601808DE4
:10135000918DA28DB38DF80180839183A283B38395
:101360000894E11CF11C0C5F1F4F84E090E0C80E54
:10137000D91E880E991E93E0E916F10409F0B1CF49
:101380009FC0ACA1A33009F47CC0772009F479C0D8
:1013900016E6C12E15E0D12E0BEB15E0B6E0AB2E14
:1013A000B12CAC0EBD1EEE24FF24872C9924C40161
:1013B0000E2C02C0959587950A94E2F780FD0BC02C
:1013C000F60180819181A281B381F80180839183AC
:1013D000A283B38346C080918E05873009F441C053
:1013E00080919205882361F5D5016D917D918D9154
:1013F0009C91F601208D318D428D538D0E94EA35EE
:10140000D8012D913D914D915C910E94EA35F801F2
:101410006083718382839383F2E0EF1611F520914C
:101420008A0530918B0540918C0550918D050E9465
:10143000EA35D8016D937D938D939C93139711C0DA
:10144000F8016081718182819381D6012D913D9156
:101450004D915C910E94EA35F8016083718382832B
:1014600093830894E11CF11C84E090E0C80ED91E1F
:101470000C5F1F4FA80EB91E93E0E916F10409F0A6
:1014800096CF80918E05853049F0873099F0833072
:10149000B9F4772009F41CA286E004C0772009F48F
:1014A0001CA287E0BE016E5E7F4F0E94D428882375
:1014B00039F494C480918F05823010F08EE193C48A
:1014C00018A210918F05183049F4772009F45FC2F3
:1014D000ACA1A13009F45BC28FE185C4BCA1B230DC
:1014E00009F055C21123E9F06091990570919A05B0
:1014F00080919B0590919C0520E030E040E050E019
:101500000E94C336882309F463C4143030F41230C7
:1015100060F4113009F03BC204C0183008F037C243
:1015200013C2772009F432C232C2772009F458C4BA
:10153000FBA1EF2FF0E0F8A7EFA39AA1892F90E08D
:101540009EA38DA381E090E08C010DA002C0000F4E
:10155000111F0A94E2F70FA002C0880F991F0A9486
:10156000E2F7082B192B872D90E080239123892BFC
:1015700011F480E238C4EFA1F8A5EE0FFF1FEE0FC3
:10158000FF1FDF01A15BBA4FE257FA4F65A576A5B1
:1015900087A590A957962D913D914D915C915A97B1
:1015A0000E94E9355B016C01EDA1FEA1EE0FFF1F6A
:1015B000EE0FFF1FDF01A15BBA4FE257FA4F65A59F
:1015C00076A587A590A957962D913D914D915C9157
:1015D0005A970E94E9351B012C01AE8DA7FF02C16D
:1015E00006E615E06BEBE62E65E0F62EF80160816D
:1015F000718182819381D7012D913D914D915C91B3
:101600000E94C336882359F40C5F1F4FE4E0F0E0DA
:10161000EE0EFF1EF5E002371F0741F7E3C380918E
:1016200091058130B1F46091B2057091B30580915C
:10163000B4059091B50523E333E34BEC51E40E94EC
:1016400001396093B2057093B3058093B40590930C
:10165000B505E090B205F090B3050091B405109186
:10166000B505C801B70120E030E040E850E40E9431
:101670000139A80197010E9401397B018C01C60143
:10168000B501A60195010E9401399B01AC01C80179
:10169000B7010E94E9357B018C01C201B101A201B1
:1016A00091010E9401399B01AC01C801B7010E9460
:1016B000E9357B018C0120E030E040E050E00E9401
:1016C000C336882314F482E28EC3C801B7010E9496
:1016D0008E397B018C01C601B501A20191010E94E6
:1016E0005E179B01AC0117FB109517F91095C80107
:1016F000B7010E94CA367B018C0180918F0583302F
:1017000021F417FB109517F910956090B2057090B1
:10171000B3058090B4059090B505C401B30120E0F5
:1017200030E040E050E00E94C33688237CF417FB91
:10173000109517F91095D401C301B0588093B205E4
:101740009093B305A093B405B093B5058E8D9F8D8E
:101750008F779F8F8E8FAFA1B8A5AA0FBB1FAA0F3F
:10176000BB1FAE56BA4FB8A7AFA3C201B101A801C3
:1017700097010E9401399B01AC01C601B5010E948D
:10178000E93520E030E040E05FE30E940139EFA15D
:10179000F8A563877487858796878DA19EA1880F9A
:1017A000991F880F991F8E569A4F9EA38DA3C6012D
:1017B000B501A80197010E9401399B01AC01C2014A
:1017C000B1010E94EA3520E030E040E05FE30E9492
:1017D0000139ADA1BEA11B966D937D938D939C9312
:1017E0001E97D5C0862C992408211921012B11F4AC
:1017F00083E2F9C2EE8DFF8DE17FFF8FEE8F809146
:101800009105813041F53DE9E32E35E0F32E00E00E
:1018100010E0C401002E02C0959587950A94E2F766
:1018200080FF10C0D7016D917D918D919C9123E334
:1018300033E34BEC51E40E940139F701608371837B
:10184000828393830F5F1F4F84E090E0E80EF91EC0
:1018500003301105F1F6EFA0F8A4EE0CFF1CEE0C1E
:10186000FF1CA2E9B5E0EA0EFB1EC601B501F701B7
:1018700023853485458556850E94E9355B016C01D9
:101880000DA11EA1000F111F000F111F0E561A4FA0
:10189000C201B101D8011B962D913D914D915C91F2
:1018A0001E970E94E9359B01AC01C601B5010E945B
:1018B0005E175B016C01F7016385748585859685EC
:1018C000D8011B962D913D914D915C911E970E94E0
:1018D0005E173B014C016093B2057093B305809392
:1018E000B4059093B505C601B501A40193010E940A
:1018F000E9357B018C01E89417F9C801B7012AE0AA
:1019000037ED43EA5BE30E94C63818160CF03FC07F
:10191000C801B70120E030E040E05FE30E94C63834
:1019200018160CF45FC2C401B3012FE632E143E89C
:101930005AE30E9401399B01AC01C801B7010E9422
:10194000C638181624F54EC2772009F449C206E6B7
:1019500015E08BEBE82E85E0F82EF80160817181AF
:1019600082819381D7012D913D914D915C910E948F
:10197000C336882361F40C5F1F4FE4E0F0E0EE0E05
:10198000FF1EF5E002371F0741F72CC21CA28E8D07
:101990009F8D8E7D9C7F2CA1222321F08E8D9F8D8B
:1019A0008E7D907E892B11F084E21DC28091AA0564
:1019B0009091AB05A091AC05B091AD058093620507
:1019C00090936305A0936405B0936505809190059D
:1019D000809350058091990590919A05A0919B055F
:1019E000B0919C0580935D0590935E05A0935F0583
:1019F000B0936005E090B605F090B7050091B8058A
:101A00001091B9056091590570915A0580915B0557
:101A100090915C05A80197010E94C3368823C1F00C
:101A200080915805882321F0B801A7010E94C6299A
:101A30008091B6059091B705A091B805B091B90510
:101A40008093590590935A05A0935B05B0935C056C
:101A50008091BA0580936105909198058091580511
:101A6000891779F04091590550915A0560915B05AD
:101A700070915C05892F0E94C629809198058093FA
:101A800058059091970580915705891739F0892F4E
:101A90000E943B04809197058093570580918E05A5
:101AA000813051F46091AE057091AF058091B00521
:101AB0009091B1050E946512809193058093530522
:101AC00080919105809351058CA18330D9F4809148
:101AD000940580935405813049F48091C305909119
:101AE000C405A091C505B091C60504C080E090E092
:101AF000A0E0B0E080938A0590938B05A0938C05BD
:101B0000B0938D059091950580915505891759F0F1
:101B100090935505A2E7B5E0FE0136968CE0019062
:101B20000D928150E1F7809192058093520580914A
:101B30008E05853059F1863048F4833039F1843090
:101B400008F044C0823009F05AC00AC0883009F455
:101B500045C0893009F44CC0863009F050C038C007
:101B60008E010E5E1F4F88A1B8010E94C928809186
:101B7000550598A1891709F042C0A2E7B5E0F80120
:101B80008CE001900D928150E1F739C0ACA1AA23FD
:101B900049F08BEB95E040E050E060E87FEB20E01F
:101BA0000E94C0128E010E5E1F4FC80140E050E03F
:101BB00060E87FEB20E00E94C012A6E6B5E0F801E5
:101BC0008CE001900D928150E1F719C086E001C0D0
:101BD00087E066E675E00E94C92811C0AEE7B5E06F
:101BE000EBEBF5E08CE001900D928150E1F707C03E
:101BF0008CE0EEE7F5E0DF011D928A95E9F7809130
:101C00008F0580934F05883009F4C2C0BCA1B23063
:101C100009F0BEC0833009F44AC0843028F4813012
:101C2000C1F0823028F50DC0853009F47AC08530C6
:101C300008F469C0863009F482C0873009F09FC07B
:101C40008DC08BEB95E040E050E060E87FEB20E05A
:101C50000CC040915D0550915E0560915F057091EB
:101C600060058BEB95E0209150050E94C01287C063
:101C700000D00F92EDB7FEB731960091B2051091EA
:101C8000B3052091B4053091B505C0905D05D090A5
:101C90005E05E0905F05F09060058AA1ADB7BEB724
:101CA00011968C9399A1918381E082831DC000D00D
:101CB0000F92EDB7FEB731960091B2051091B305C2
:101CC0002091B4053091B505C0905D05D0905E05BA
:101CD000E0905F05F09060058AA1ADB7BEB71196A0
:101CE0008C9399A19183128286E695E06BEB75E067
:101CF0004DE955E0A09050058BA00E9473130F9002
:101D00000F900F903CC040915D0550915E05609131
:101D10005F05709160058BEB95E02091500500E028
:101D20001BC040915D0550915E0560915F0570910B
:101D300060058BEB95E02091500500E01CC04091C0
:101D40005D0550915E0560915F05709160058BEBBC
:101D500095E02091500501E0EE240FC040915D0513
:101D600050915E0560915F05709160058BEB95E089
:101D70002091500501E0EE24E3940E94F112A6E6C2
:101D8000B5E0EBEBF5E08CE001900D928150E1F7CE
:101D90008091960580935605882329F10E94F71FAC
:101DA00081E0809331050E94C61E809156058230E5
:101DB00019F40E94291202C01092560580E013C047
:101DC00088E111C084E10FC087E10DC085E10BC03F
:101DD00086E109C08CE107C08DE105C087E003C042
:101DE0008AE101C081E2A8960FB6F894DEBF0FBE6B
:101DF000CDBFCF91DF911F910F91FF90EF90DF90BA
:101E0000CF90BF90AF909F908F907F906F905F909A
:101E10004F903F902F90089584E00C94E70683E064
:101E20000C94E70686E695E064E375E00E940034D2
:101E30000895EFE4F5E08FE3DF011D928A95E9F75D
:101E400080915505BF016D5D7F4F0E94D428882386
:101E500019F487E00E94D120089584B1897E84B965
:101E600085B1866185B98091C50683FF09C08091DF
:101E70006B00866180936B0080916800816008C070
:101E800080916B00897E80936B00809168008E7FCB
:101E9000809368000895EBE6F0E08081897E80837E
:101EA000E8E6F0E080818E7F80830895CF92DF9214
:101EB000EF92FF920F931F93CF93DF936C01C0E0DB
:101EC000D0E0F601EC0FFD1FE080F180028113816C
:101ED000C801B70120E030E040E050E00E94C63881
:101EE00018166CF0FE01E857F94FC801B70124A19C
:101EF00035A146A157A10E94C33688231CF58091C5
:101F00003005883091F49FB7F8948091320588604D
:101F1000809332059FBF0E94C61E80912F058823A3
:101F2000B1F4809130058823B1F70E9429129FB740
:101F3000F894809133058560809333059FBF0E949C
:101F4000C61E05C02496CC30D10509F0BACFDF916A
:101F5000CF911F910F91FF90EF90DF90CF90089558
:101F60001F920F920FB60F9211242F933F934F930E
:101F70005F936F937F938F939F93AF93BF93EF93F1
:101F8000FF9380913005813071F080913305882373
:101F900051F40E9429129FB7F89480913305836011
:101FA000809333059FBFFF91EF91BF91AF919F91B8
:101FB0008F917F916F915F914F913F912F910F90F2
:101FC0000FBE0F901F9018952F923F924F925F92E5
:101FD0006F927F928F929F92AF92BF92CF92DF9239
:101FE000EF92FF920F931F93DF93CF93CDB7DEB79E
:101FF0006B970FB6F894DEBF0FBECDBF982F8091C0
:102000002F05882309F00CC22091CB063091CC0615
:102010004091CD065091CE062E8B3F8B488F598F25
:102020004CEA56E05C8B4B8B5A016624772488245B
:10203000992400E010E01E010894211C311C44E0AA
:10204000442E512C4C0E5D1EA92FB0E0BB8FAA8FE1
:10205000802F0E949E26F101E00FF11F8083802FC8
:102060000E948A26F201E00FF11F80838A8D9B8DEA
:10207000002E02C0959587950A94E2F780FF15C05F
:10208000F501608171818281938120E030E040EC34
:102090005FEB0E9401396B017C01B301C401A70110
:1020A00096010E94C638181624F4C301D4016C01AD
:1020B0007D010F5F1F4F24E030E0A20EB31E0330FE
:1020C000110529F0D701C60136014D01C1CF0E948B
:1020D0007D1C0E94BB175524539435E0432E8091FC
:1020E000C50686FD02C05D8A03C031E035253D8B03
:1020F000CE01079664E375E00E9400348091C60625
:10210000282E332427E0622E712C6C0E7D1E830155
:1021100099248824AA24BB248A8D9B8D0A2C02C072
:10212000959587950A94E2F780FF2FC0C1010A2C8C
:1021300002C0959587950A94E2F780FF03C0552069
:1021400019F00CC0552051F0D8016D917D918D9101
:102150009C91A70196010E94EA3509C0D8016D91B2
:102160007D918D919C91A70196010E94E935F8011E
:1021700060837183828393838394E4E0F0E0EC0FC7
:10218000FD1FEA0DFB1D8081982A0894A11CB11C3B
:102190000C5F1F4FF3E0AF16B10409F0BDCF682DFF
:1021A00070E080E090E00E9463370E948E399B01CE
:1021B000AC01909240056E897F89888D998D0E942F
:1021C0000139AB01BC01CE01079620E00E94411904
:1021D0000E94A22A0E94282A43B12D89222311F0AD
:1021E00036E1432720E030E0E4E0F0E0EC0FFD1FB3
:1021F000E20FF31F9081892D892359F0E1E0F0E08F
:10220000EC0FFD1FE20FF31F8081842311F09095E6
:1022100099222F5F3F4F2330310531F790924005CF
:102220000E94A22A80913205847349F08091320580
:10223000847211F00E9429120E94C61EF1C0892DDD
:102240008C7151F60E946F310E947D1C0E94BB1759
:102250008091CF069091D0060E9414178091C706F6
:102260009091C806A091C906B091CA068E8B9F8B2B
:10227000A88FB98F442021F091E059264A942FCF9E
:102280008091C606A82EBB2494E3C92E95E0D92ED2
:102290008CEAE82E86E0F82E00E010E08A8D9B8D17
:1022A000002E02C0959587950A94E2F780FF25C01D
:1022B000C501002E02C0959587950A94E2F780FD2E
:1022C00005C080E090E0A0E0B0E012C0F701B49754
:1022D000D7016D917D918D919C91208131814281B9
:1022E00053810E9401390E94D138AC01CB01DA013F
:1022F000F60180839183A283B3830F5F1F4F24E095
:1023000030E0C20ED31EE20EF31E0330110531F68B
:102310000E94BB176091D1067091D2068091D306BE
:102320009091D40620E030E040E050E00E94C638B2
:1023300018160CF072C000E010E08A8D9B8D002E04
:1023400002C0959587950A94E2F780FF30C080918E
:10235000C60690E0002E02C0959587950A94E2F794
:1023600080FF16C06091D1067091D2068091D3068D
:102370009091D406AB89BC892D913D914D915C9192
:102380000E94EA35F30160837183828393831AC0CC
:102390008091D1069091D206A091D306B091D40637
:1023A000B058F30180839183A283B3830BC084E38D
:1023B00095E0602F0E94E433D3016D937D938D935C
:1023C0009C9313970F5F1F4FE4E0F0E06E0E7F1EAB
:1023D0002B893C892C5F3F4F3C8B2B8B03301105A5
:1023E00009F0ABCF4091CB065091CC066091CD0661
:1023F0007091CE06CE01079620E00E9441191092FE
:1024000030059FB7F8948091320582608093320541
:102410009FBF0E94C61E0E94F71F84E08093300574
:102420006B960FB6F894DEBF0FBECDBFCF91DF9194
:102430001F910F91FF90EF90DF90CF90BF90AF90E2
:102440009F908F907F906F905F904F903F902F90D4
:1024500008958091320584FD27C08FB7F89490913C
:1024600032059061909332058FBF0E94C1290E946E
:10247000330490913005892F8C7021F480913105BF
:10248000813091F4943031F49FB7F8948091330502
:10249000806205C09FB7F89480913305886080936F
:1024A00033059FBF0E94433108950E944B0F83E084
:1024B0000E94E40F0E94C61E80912F05882321F4FC
:1024C0000E94120F0E942D0F0895EF92FF920F931A
:1024D0001F93CF93DF937B018C0180913005823075
:1024E00009F447C0C801B70120E030E040EA51E4F8
:1024F0000E9401390E94A0370E943737EB010E94E9
:10250000F71FC801B70120E030E04AE754E40E9419
:1025100001397B018C0182E390E0C89FB001C99F23
:10252000700DD89F700D112480E090E00E946337F9
:102530009B01AC01C801B7010E94E9350E94A03798
:102540000E943737DC01CB010E94141700E911E02B
:102550000EC00E94C61E80912F05882351F484EF7F
:1025600091E0F8013197F1F70197D9F7219720977A
:1025700081F7DF91CF911F910F91FF90EF90089518
:10258000DF92EF92FF920F931F93CF93DF93EC01B3
:102590007A018B01D22E8091C50685FF03C0CE0142
:1025A0000E94560F80913005823099F00E94C61E1D
:1025B00080912F05882369F40E94B117882319F0B0
:1025C0000E94BD1EF3CFCE01B801A7012D2D0E94A0
:1025D0004119DF91CF911F910F91FF90EF90DF9004
:1025E0000895AF92BF92CF92DF92EF920F931F9315
:1025F000CF93DF93EC015A016B01122F80913005CC
:10260000823009F466C00E94F71F10924E05802F99
:102610000E94891E0E949C1E882351F09FB7F89447
:10262000809133058061809333059FBF0E94C61E51
:1026300080912F05882309F04CC0CE01B601A50179
:10264000212F0E94C01281E0809341059FB7F8942A
:10265000809132058260809332059FBF0E94C61E22
:1026600080912F058823A9F5809130058823B1F743
:10267000809141058130A9F4EE2051F0E2E4F5E0CB
:10268000DF011E978CE00D9001928150E1F70CC0A4
:102690009FB7F894809133058061809333059FBF85
:1026A00003C081E080934E05109241050E94C61E32
:1026B00080912F05882369F40E946F310E947D1C50
:1026C0000E94BB17CE0164E375E00E9400340E94B3
:1026D0003223DF91CF911F910F91EF90DF90CF9038
:1026E000BF90AF9008952F923F924F925F926F925A
:1026F0007F928F929F92AF92BF92CF92DF92EF9292
:10270000FF920F931F93DF93CF93CDB7DEB7EF9771
:102710000FB6F894DEBF0FBECDBF9CAB8BAB7EABCC
:102720006DAB3A010FAB18AF29AF3AAFCBAEDCAE11
:10273000EDAEFEAEAFAE9924880C991C880C991CA6
:10274000880D991D9AAB89AB9A01280D391D38ABBC
:102750002FA7D901AD90BD90CD90DC90C601B501F9
:10276000E9A9FAA920813181428153810E94EA3589
:102770006DA37EA38FA398A765966FAD6597462E30
:102780005524440C551C440C551C2BA93CA9240D64
:10279000351D3EA72DA7C301840D951D9CA78BA7B2
:1027A000DC01ED90FD900D911C91C801B701F9017C
:1027B00020813181428153810E94EA3569A37AA345
:1027C0008BA39CA3D601C501B0588D8F9E8FAF8F70
:1027D000B8A3D801C701B058898F9A8FAB8FBC8F2F
:1027E000ADA9BEA98A0E9B1EF40160817181828110
:1027F00093812DA13EA14FA158A50E94E9353B012F
:102800004C012DA93EA9420E531ED2016D917D911E
:102810008D919C9129A13AA14BA15CA10E94E9351F
:102820005B016C016D8D7E8D8F8D98A1A601950148
:102830000E9401397B018C01698D7A8D8B8D9C8D75
:10284000A40193010E9401399B01AC01C801B701A9
:102850000E94E9351B012C016D8D7E8D8F8D98A115
:10286000A40193010E9401397B018C01698D7A8D4D
:102870008B8D9C8DA60195010E9401399B01AC01B5
:10288000C801B7010E94EA359B01AC01C201B10148
:102890000E945D365B016C0167968FAD6797882358
:1028A00099F0C601B5012DEB37E346E055EB0E94E8
:1028B000C6388823ECF0C601B5012BED3FE049ECAA
:1028C00050E40E94E93512C0C601B5012DEB37E393
:1028D00046E055E30E94C336181654F0C601B50110
:1028E0002BED3FE049EC50E40E94EA355B016C01BE
:1028F000E090C106F090C2060091C3061091C40694
:102900006FA978AD89AD9AAD9B01AC010E94EA3503
:10291000A80197010E94E9359B01AC01C801B701EC
:102920000E9401390E948E397B018C01C601B501DC
:1029300020E030E040E05FE30E9401392FA938AD8C
:1029400049AD5AAD0E9401399F77A80197010E94B5
:10295000CA360E94A0370E943737788F6F8B611577
:10296000710509F487C1BFADBB2381F080E090E021
:102970000E9463379B01AC016BAD7CAD8DAD9EAD0C
:102980000E9401396BAF7CAF8DAF9EAF2F89388D20
:10299000B90180E090E00E9463377B018C01C601A1
:1029A000B501A80197010E94CA366B8B7C8B8D8B79
:1029B0009E8B6696EFAD6697F0E0EE0FFF1FEE0F71
:1029C000FF1F8BA99CA98E0F9F1F9AA789A7ADA94E
:1029D000BEA9EA0FFB1F6081718182819381E9A505
:1029E000FAA520813181428153810E94E935A801F5
:1029F00097010E94CA366F87788B898B9A8B6B8977
:102A00007C898D899E899B01AC010E9401399B01C3
:102A1000AC0160E070E080E090E40E94E9355B0189
:102A20006C016B897C898D899E892BEA3AEA4AE29E
:102A30005EE30E9401397B018C01C601B50120E0F3
:102A400030E040E850E40E94EA359B01AC01C80147
:102A5000B7010E9401396B877C878D879E87C601ED
:102A6000B50120E030E040E05FE30E940139698376
:102A70007A838B839C8321E030E03E832D839924ED
:102A8000F1C03BE0391508F446C06D8D7E8D8F8D09
:102A900098A12B853C854D855E850E9401397B017F
:102AA0008C01698D7A8D8B8D9C8D29813A814B812A
:102AB0005C810E9401399B01AC01C801B7010E94F1
:102AC000EA357B018C016D8D7E8D8F8D98A12981DA
:102AD0003A814B815C810E9401395B016C01698DF7
:102AE0007A8D8B8D9C8D2B853C854D855E850E94D6
:102AF00001399B01AC01C601B5010E94E9356D8F1A
:102B00007E8F8F8F98A39394C701D801898F9A8F56
:102B1000AB8FBC8F61C0AD81BE81BD0180E090E014
:102B20000E9463372B893C894D895E890E94013957
:102B30007B018C01C8010E94C7366F837887898723
:102B40009A87B701C8010E9484393B014C01EFA567
:102B5000F8A9E080F1800281138117FB109517F925
:102B60001095ABA5BCA52D903D904D905C90C801F3
:102B7000B7012F81388549855A850E9401395B014B
:102B80006C01C201B101A40193010E9401399B01B2
:102B9000AC01C601B5010E94EA356D8F7E8F8F8F23
:102BA00098A3C801B701A40193010E9401397B01D8
:102BB0008C01C201B1012F81388549855A850E9457
:102BC00001399B01AC01C801B7010E94E935698F49
:102BD0007A8F8B8F9C8F99246DA17EA18FA198A550
:102BE0002D8D3E8D4F8D58A10E94EA35E9A9FAA995
:102BF000608371838283938369A17AA18BA19CA155
:102C0000298D3A8D4B8D5C8D0E94EA35ADA5BEA510
:102C10006D937D938D939C931397E9A5FAA560819D
:102C20007181828193812F85388949895A890E94CF
:102C3000EA35A9A5BAA56D937D938D939C931397BF
:102C40008BA99CA94BAD5CAD6DAD7EAD2FAD0E9447
:102C5000C01280912F058823B1F4ED81FE81319659
:102C6000FE83ED832D813E818F89988D281739074A
:102C700008F407CF8DA99EA94BAD5CAD6DAD7EADBF
:102C80002FAD0E94C012EF960FB6F894DEBF0FBEB4
:102C9000CDBFCF91DF911F910F91FF90EF90DF900B
:102CA000CF90BF90AF909F908F907F906F905F90EC
:102CB0004F903F902F9008956F927F928F929F92A6
:102CC000AF92BF92CF92DF92EF92FF920F931F933A
:102CD000CF93DF934C013B015A01FB018081F4014A
:102CE000E80FF11DEF0189918D3229F48181219640
:102CF000CC24C39405C08B3211F481812196CC245D
:102D000020E030E040E050E0DD24E0E070E0682FBB
:102D100060536A30F8F4EF5FE930C0F47111DA946F
:102D2000DA01C901F2E0880F991FAA1FBB1FFA95AB
:102D3000D1F7280F391F4A1F5B1F220F331F441F73
:102D4000551F260F311D411D511D09C0772339F430
:102D5000D39405C06E3F29F4772319F471E089916B
:102D6000D6CFEE2311F480E050C0CA01B9010E9411
:102D700063377B018C0120E030E040E050E00E94AE
:102D8000C336882369F42BC0C801B7012AE037EDA8
:102D900043E25CE30E9401397B018C01F2E0DF0E2B
:102DA0008FEFD8168CF3D81659F4C801B7012DEC63
:102DB0003CEC4CEC5DE30E9401397B018C010FC0BF
:102DC000DD2069F0C801B70120E030E040E251E4C5
:102DD0000E9401397B018C01DA941D149CF3CC20F4
:102DE00049F0D801C701B058F50180839183A283CF
:102DF000B38305C0F501E082F18202831383882D3D
:102E000080958C0FF301808381E0DF91CF911F913A
:102E10000F91FF90EF90DF90CF90BF90AF909F9079
:102E20008F907F906F90089520EA3FE004C0F901F1
:102E30003197F1F701970097D1F708951F93A0EA12
:102E4000BFE040E951E015E335E031C06A3071057B
:102E50008105910540F4232F2A95F1F761507040C8
:102E60008040904024C0643671058105910540F48E
:102E7000212F2A95F1F76A5070408040904017C08A
:102E8000683E23E0720720E0820720E0920740F4CA
:102E9000FA013197F1F7645670408040904007C0C6
:102EA000FD013197F1F7685E7340804090406115F5
:102EB00071058105910551F61F910895AF92BF925A
:102EC000CF92DF92EF92FF920F931F937B018C01C1
:102ED00059016A01A80197010E9401397B018C0107
:102EE000C601B501A60195010E9401399B01AC0103
:102EF000C801B7010E94EA350E948E391F910F91D7
:102F0000FF90EF90DF90CF90BF90AF9008958F5FCC
:102F1000823109F480E008952091EA038091EB0367
:102F2000821769F0922F9F5F923109F490E08091AF
:102F3000ED03281711F49093ED039093EA0308959D
:102F40009091EA038091EB03891719F420E030E0B7
:102F500006C089E2989F90011124285F3E4FC90165
:102F6000089520E09091EA038091EC03981709F40A
:102F700021E0822F08958091340590913505A0912C
:102F80003605B09137058093EE039093EF03A0933D
:102F9000F003B093F1038091380590913905A09129
:102FA0003A05B0913B058093F2039093F303A0930D
:102FB000F403B093F50380913C0590913D05A091F9
:102FC0003E05B0913F058093F6039093F703A093DD
:102FD000F803B093F90308958091EB039091EA030D
:102FE000891710F0891B08958E5E891B08954F92F2
:102FF0005F926F927F928F929F92AF92BF92CF9289
:10300000DF92EF92FF920F931F93CF93DF93809104
:10301000EB03882309F482E1782E7A946090ED0323
:10302000761409F4F2C089E2789E4001112488E008
:1030300091E0880E991EF401A588B688C788D08CC7
:1030400021A132A143A154A1CA01B9010E94EA35CC
:10305000F40125A136A147A150A50E9401397B01A9
:103060008C01B501C601A80197010E94C33687FDF6
:1030700004C0D801C70157016D01C501D601F40193
:10308000818B928BA38BB48B772011F432E1732E5A
:103090007A94761409F04EC08091EA03681609F01C
:1030A00050C00E94802A4DC0769CE0011124C85F68
:1030B000DE4F772011F422E1722E7A948091EA0398
:1030C000781611F40E94802AAD88BE88CF88D88CEB
:1030D00069897A898B899C89A60195010E94C336EA
:1030E000882331F129A13AA14BA15CA1CA01B90100
:1030F0000E94EA352DA13EA14FA158A50E94013999
:10310000F40121893289438954890E94EA357B017F
:103110008C01A60195010E94C33688232CF4E98A0C
:10312000FA8A0B8B1C8B04C0A98ABA8ACB8ADC8AE8
:103130004E0102C099E2692E8091ED03781609F0E4
:10314000B3CFA090ED03BA2CB394F2E1BF1609F40B
:10315000BB2489E2A89E80011124085F1E4F509075
:10316000EB0389E2482E4CC0B49CE0011124C85FF7
:10317000DE4FF801C188D288E388F48869887A88AC
:103180008B889C88C701B601A40193010E94C336B5
:1031900088231CF5F80121A132A143A154A1CA0141
:1031A000B9010E94EA35F80125A136A147A150A531
:1031B0000E9401399B01AC01C701B6010E94EA35AA
:1031C0007B018C01A40193010E94C33688232CF457
:1031D000E98AFA8A0B8B1C8BAB2C69897A898B89DB
:1031E0009C892D893E894F89588D0E94C33688233A
:1031F00009F4AB2CB394F2E1BF1609F4BB248E01A1
:10320000B51409F0B1CFA092ED03DF91CF911F91DA
:103210000F91FF90EF90DF90CF90BF90AF909F9075
:103220008F907F906F905F904F9008950E94802ABA
:103230008091EA038093ED030E94F717089520918F
:10324000EA032F5F223109F420E08091EB03281775
:1032500029F460E070E080E090E012C030E089E2A4
:1032600090E0289FF001299FF00D389FF00D112468
:10327000E85FFE4F61897289838994890E948E3943
:1032800008952F923F924F925F926F927F928F920A
:103290009F92AF92BF92CF92DF92EF92FF920F93E5
:1032A0001F93DF93CF93CDB7DEB7E6970FB6F894B1
:1032B000DEBF0FBECDBF9DA78CA74EA75FA768AB93
:1032C00079AB2AAB9091EB0389E2989F40011124DE
:1032D00028E031E0820E931ED4011D961D921D92AE
:1032E0001D921C92509780E090E0A0E0B0E0F401C5
:1032F00085A396A3A7A3B0A7108289E996E7A6E9BC
:10330000BEE781A392A3A3A3B4A328E836E03C8F31
:103310002B8F1E010894211C311C4EEE442E43E0DD
:10332000542E9A8E898E1BA666247724ECA5FDA5C3
:10333000E60DF71D6081718182819381AB8DBC8D1B
:103340002D913D914D915C910E9401390E94D1389F
:103350009B01AC01F1012083318342835383F2014D
:1033600080819181A281B381281B390B4A0B5B0BB1
:1033700057FF07C050954095309521953F4F4F4FCF
:103380005F4FA98DBA8D11962D933D934D935C930C
:103390001497F40185859685A785B0892817390784
:1033A0004A075B0710F49C01AD01D4011D962D93D3
:1033B0003D934D935C935097F101608171818281BF
:1033C0009381D2012D913D914D915C91621B730BC4
:1033D000840B950B0E946537EB8DFC8D208131812C
:1033E000428153810E94CA365B016C01EDE0F0E03E
:1033F000EC0FFD1FE60DF71D6083718382839383BD
:1034000020E030E040E050E00E94C336882344F4DE
:10341000D4011C918BA50E949426182BF4011083D3
:10342000D4019596ED90FD900D911C919897C60151
:10343000B501A60195010E9401399B01AC01C801AB
:10344000B7010E94EA357B018C01CB01D801F40160
:1034500085A396A3A7A3B0A7FBA5FF5FFBA724E0C6
:1034600030E0620E731E8B8D9C8D04969C8F8B8F2B
:10347000220E331E420E531EA98DBA8D1496BA8F9A
:10348000A98FF33009F052CFB701C8010E948E39DD
:103490007B018C01F40165A376A387A390A78585A2
:1034A0009685A785B0890097A105B10509F40CC2DE
:1034B0006EA57FA588A999A920E030E040E050E002
:1034C0000E94C33688232CF489E996E7A6E9BEE773
:1034D0001FC09AA9992361F06EA57FA588A999A913
:1034E000A80197010E9401396EA77FA788AB99AB0D
:1034F0006EA57FA588A999A920E030E040E85FE3A8
:103500000E94C336882344F480E090E0A0E8BFE343
:103510008EA79FA7A8ABB9AB60E070E080E89FE3FF
:10352000A80197010E94CA366FA378A789A79AA716
:10353000DE011D96BAA3A9A3EAEFF3E0F8A3EF8F8B
:1035400024E936E03E8F2D8F80E090E0A0E0B0E0EF
:103550008BA39CA3ADA3BEA3DE015996BEABADABBE
:10356000E9A1FAA1E080F18002811381C801B701CD
:1035700020E030E040E050E00E94C336882309F4A8
:103580007CC0C801B7012FA138A549A55AA50E9442
:1035900001392B013C01A9A1BAA16D937D938D93B3
:1035A0009C93139760E070E080E89FE3A301920191
:1035B0000E94CA365B016C01E894D7F8C601B501D8
:1035C000ED8DFE8D20813181428153810E94013930
:1035D0007B018C016EA57FA588A999A9A8019701F7
:1035E0000E94C33687FD04C0EEA6FFA608AB19AB48
:1035F000D4019196BC91BBABF401F2A1FCABD40118
:1036000093962C90939794963C90C601B501ED8DBE
:10361000FE8D24853585468557850E9401397B01BD
:103620008C016BA97CA9C101A80197010E94C33636
:1036300087FD05C0D801C701EBAA9CAB1D018BA972
:103640009CA9D101F40181A392A3A3A3B4A3C301B4
:10365000B201AF8DB8A12D913D914D915C910E9429
:1036600001399B01AC016BA17CA18DA19EA10E949F
:10367000E9356BA37CA38DA39EA3E9A1FAA134969F
:10368000FAA3E9A32F8D38A12C5F3F4F38A32F8FCA
:103690008D8D9E8D04969E8F8D8FADA9BEA9EA1744
:1036A000FB0709F05DCF9091EB038091EA03981737
:1036B00051F480E090E0A0E0B0E0F401818B928BC7
:1036C000A38BB48B11C06BA17CA18DA19EA124EA18
:1036D00030E74DE75FE30E94C638181654F480E0E7
:1036E00090E0A0E0B0E0F401818F928FA38FB48FBF
:1036F00066C06BA17CA18DA19EA124EA30E74DE7B5
:103700005FEB0E94C638181644F084EA90E7ADE7F4
:10371000BFEB8BA39CA3ADA3BEA360E070E080E8E9
:103720009FE32BA13CA14DA15EA10E94E93520E0C1
:1037300030E040E05FE30E9401390E948E395B0176
:103740006C01D40191966D917D918D919C9194978E
:103750002091BD063091BE064091BF065091C00633
:103760000E940139A60195010E9401397B018C015B
:1037700060E070E080E89FE3A60195010E94E935D2
:103780009B01AC01C801B7010E94CA367B018C01C4
:1037900020E030E040E050E00E94C336882354F43B
:1037A0000F2EF0E0EF2EF0E0FF2EF0E00F2FF0E014
:1037B0001F2FF02DF401E18EF28E038F148F6EA572
:1037C0007FA588A999A99B01AC010E9401397B01C1
:1037D0008C01D4015D966D937D938D939C9390970E
:1037E00059965C9059975A964C905A975B963C9094
:1037F0005B975C962C90D0900604C0900704B09024
:103800000804A09009042D2D3C2D4B2D5A2D0E940B
:10381000C33687FD04C06D2C7C2CF50105C0D80192
:10382000C7013701FA2FEB2F652D742D832D922DB3
:1038300093014F2F5E2F0E94C33688232CF4852DD1
:10384000942DA32DB22D0EC0C801B7012D2D3C2DF6
:103850004B2D5A2D0E94C33687FD06C08D2D9C2D01
:10386000AB2DBA2D7C018D01F401E58AF68A078B18
:10387000108FAAEFB3E0FE013D968CE001900D920F
:103880008150E1F7F401858D968DA78DB0A18093CD
:10389000060490930704A0930804B0930904AEEEC5
:1038A000B3E0FE0131968CE001900D928150E1F77A
:1038B0008091EC038093EB038F5F823109F480E009
:1038C0008093EC030E94F717E6960FB6F894DEBFDC
:1038D0000FBECDBFCF91DF911F910F91FF90EF9061
:1038E000DF90CF90BF90AF909F908F907F906F9020
:1038F0005F904F903F902F9008958CE1EEEEF3E0B3
:10390000DF011D928A95E9F71092EA031092EB030A
:1039100081E08093EC031092ED0308958F929F92C3
:10392000AF92BF92CF92DF92EF92FF920F931F93CD
:10393000DF93CF93CDB7DEB72A970FB6F894DEBFEB
:103940000FBECDBF7B018C01A42E20E030E040E013
:1039500050E00E94C33688233CF48DE20E94C725C4
:1039600017FB109517F91095DA2C0CC0C801B70198
:1039700020E030E048EC52E40E9401397B018C01E8
:103980008EEFD80EE1E0ED1588F3A0FE0AC0C80165
:10399000B70120E030E040E251E40E9401397B01B0
:1039A0008C01C801B70120E030E040E05FE30E94F5
:1039B000EA350E9432376B017C019E012F5F3F4F39
:1039C000F901EA0DF11D8EE28083BB2449011EC07E
:1039D000BA1409F4B39484010B0D111DC701B6018B
:1039E0002AE030E040E050E00E94FA39605DF801E2
:1039F0006083B394C701B6012AE030E040E050E0B4
:103A00000E94FA39C901DA016C017D01C114D104A7
:103A1000E104F104E9F606C0FC01EB0DF11D208381
:103A2000B39403C0CE01019620E3BA14A8F3BA14EC
:103A300089F48B2D8F5FFE01E80FF11D90E39183D8
:103A4000B82EB39407C0FE01EB0DF11D80810E94DA
:103A5000C725BA94BB20B9F72A960FB6F894DEBFF3
:103A60000FBECDBFCF91DF911F910F91FF90EF90CF
:103A7000DF90CF90BF90AF909F908F90089543E0DC
:103A80000E948E1C08959B01AC018091C50680FFA9
:103A90000AC0CA01B9012BE832E441E25DE30E94A9
:103AA000013941E003C0CA01B90140E00E948E1C07
:103AB00008959B01AC018091C50680FF0AC0CA0130
:103AC000B9012BE832E441E25DE30E94013944E0B0
:103AD00003C0CA01B90143E00E948E1C0895AF9251
:103AE000BF92CF92DF92EF92FF920F93DF93CF932B
:103AF000CDB7DEB72C970FB6F894DEBF0FBECDBFA3
:103B00006B017C01611571058105910521F480E34C
:103B10000E94C72532C000E05E010894A11CB11CC0
:103B2000C501800F911D9C878B87C701B6012AE0D4
:103B300030E040E050E00E94FA39EB85FC8560837C
:103B40000F5FC701B6012AE030E040E050E00E947C
:103B5000FA39C901DA016C017D01C114D104E10413
:103B6000F104F1F608C0FE01E00FF11D8081805DD7
:103B70000E94C72501500023B1F72C960FB6F89488
:103B8000DEBF0FBECDBFCF91DF910F91FF90EF90C1
:103B9000DF90CF90BF90AF900895EF92FF920F9378
:103BA0001F937B018C0197FF0AC08DE20E94C725FD
:103BB00066277727CB016E197F09800B910B0E9436
:103BC0006F1D1F910F91FF90EF9008951F93DF934A
:103BD000CF9300D00F92CDB7DEB7282F882321F4E2
:103BE00080E30E94C7251EC010E0AE014F5F5F4F0B
:103BF000FA01E10FF11D822F6AE00E94EE39905D1B
:103C000090831F5F822F0E94EE39282F882381F72F
:103C100007C0FE01E10FF11D80810E94C7251150F0
:103C20001123B9F70F900F900F90CF91DF911F9153
:103C300008950F931F93DF93CF93CDB7DEB72897E7
:103C40000FB6F894DEBF0FBECDBF982FFE013196A0
:103C50009E01275F3F4F892F817081939695E217D0
:103C6000F307C9F78E01085F1F4FF8018081805D5F
:103C70000E94C725015010400C171D07B1F7289668
:103C80000FB6F894DEBF0FBECDBFCF91DF911F916D
:103C90000F910895CF93DF93EC0102C00E94C725D6
:103CA000FE01219684918823C9F7DF91CF91089571
:103CB000CF93DF93EC0103C021960E94C725888132
:103CC0008823D1F7DF91CF910895DF93CF9300D070
:103CD000CDB7DEB78091D5069091D606009711F446
:103CE00089ED96E0BE016F5F7F4F681B790B7A8389
:103CF000698380E090E00E94CD1D80E091E00E9409
:103D0000581E0F900F90CF91DF9108953D98459ADE
:103D10000895982F1092C7058091C50687FD03C0AE
:103D200080E28093C705992331F08091C70590E226
:103D300089278093C705089586B180729091C70541
:103D400089270895809141058130B1F486B1807250
:103D50009091C705891781F010924105E2E4F5E0E2
:103D6000DF011E978CE00D9001928150E1F7809168
:103D7000320580648093320508959FB7F89480914E
:103D800032058260809332059FBF0895CF92DF9203
:103D9000EF92FF920F931F93CF93DF93FF24F3943F
:103DA00028E0D22E90E2C92E00E180E4E82E809136
:103DB0003305882381F1F0923005182F81FF02C06E
:103DC00081E00FC082FF02C082E00BC083FF02C00F
:103DD00083E007C084FF02C084E003C085FF03C006
:103DE00085E00E946D2510FF0FC081E00E94A22097
:103DF0009FB7F894809132058F7E809332059FBFE4
:103E00008091320584FFFCCF8FB7F89490913305F1
:103E1000109233058FBF10913205112309F4C5C0EC
:103E2000C12FD0E014FF04C081E080932F05D6C0DD
:103E300010FF0AC00E9438219FB7F8948091320584
:103E40008E7F809332059FBFCE0188769070892B3C
:103E500009F43DC090913005992349F0892F8C7762
:103E600071F1983021F40E94802AF09231059091EE
:103E70003005992319F482E080933105C6FF09C00B
:103E8000983011F4E092300580913105886080937C
:103E90003105C3FF06C08091300585FD02C0009347
:103EA0003005C5FF0CC086E00E94A220809131053C
:103EB00081FD1460846080933105C09230059FB706
:103EC000F894809132058779809332059FBFC12F86
:103ED000D0E011FF4AC0CE0188769070892BE9F5B9
:103EE00080913005882331F08075B9F180913105DA
:103EF00081FF33C08091310582FF1CC0809158053D
:103F0000882371F04091590550915A0560915B05E5
:103F100070915C050E94C52980EA9FE00E941417F9
:103F200080915705882331F00E94350488EE93E094
:103F30000E9414170E94A017892B59F08091310517
:103F400083FD07C0D09230050E94A22A0E94282A31
:103F500002C010923005109231059FB7F8948091FD
:103F600032058D7F809332059FBFC2FF1EC08091B6
:103F70003005807371F08091310582FF04C00E948A
:103F8000C1290E94330480913105826080933105FC
:103F900004C010923105109230059FB7F8948091BB
:103FA00032058B7F809332059FBF809130058C77DF
:103FB00011F00E94A22A80913005803251F4809144
:103FC000310581FF06C00E94E233882311F400937B
:103FD000300580913105882309F0E9CEDF91CF913A
:103FE0001F910F91FF90EF90DF90CF9008959FB7B2
:103FF000F894809132058260809332059FBF0E94C1
:10400000C61E80912F05882341F40E94A017892B9A
:10401000B1F780913005883091F308950F931F9385
:104020000E949D2080913005813021F482E00E9421
:10403000A22028C00E94E233882341F080913205FB
:104040008062809332050E94C61E02C01092300525
:104050008AE094E00E94513415C09A3011F09D30EE
:1040600029F5E12FF0E0E65FFB4F10820E94C61EAB
:1040700080912F05882331F480910A04882321F44C
:104080000E94D12000E02BC0843229F48AE094E021
:104090000E947D34F5CF80913005813011F489E0A4
:1040A000EFCF8AE094E00E94ED04EACF002331F0E4
:1040B000993239F5013029F500E023C0913208F139
:1040C0009F32F9F0983211F401E01BC09B3311F4D8
:1040D00002E017C01F3428F08BE00E94D12010E0CE
:1040E00010C0892F8156A12FB0E0E12FEF5F8A31F8
:1040F00020F4A65FBB4F905202C0A65FBB4F9C93BB
:104100001E2F0E940F26982F8F3F09F0A6CF8FB742
:10411000F894909132059260909332058FBF0E947F
:10412000C61E80912F05882361F31F910F9108957A
:104130008DE894E00E944A1E089581ED95E00E946A
:104140004A1E08951F93182F86E496E00E944A1E87
:104150001330A1F0143028F4113051F01230D9F49A
:104160000AC0153089F0153060F01630A1F40FC088
:1041700084E396E00EC080E296E00BC08EE096E00D
:1041800008C086E096E005C08DEF95E002C082EFA2
:1041900095E00E944A1E8EEE95E00E944A1E1F91F5
:1041A00008951F93182F882319F48AEA97E05CC0BA
:1041B00082EA97E00E944A1E1730A9F1183078F47D
:1041C000133029F1143030F41130C9F0123009F0F5
:1041D00042C018C0153009F1163010F51BC01B3055
:1041E00071F11C3028F4193021F11A3028F51EC065
:1041F000153141F1163161F1143169F526C08AE8B3
:1042000097E002C088E797E00E944A1E2BC086E62E
:1042100097E0FACF8CE597E0F7CF8BE497E0F4CF07
:104220008CE397E0F1CF8BE197E0EECF82E197E06E
:10423000EBCF87E097E0E8CF84EF96E0E5CF86EE1E
:1042400096E0E2CF80ED96E0DFCF8CEB96E0DCCF1E
:1042500088EA96E0D9CF86E996E00E944A1E812F2F
:104260000E94E61D83E996E00E944A1E1F91089570
:10427000DF92EF92FF920F931F93DF93CF93CDB70F
:10428000DEB768970FB6F894DEBF0FBECDBFDE0174
:104290001196E4E3F5E08CE001900D928150E1F796
:1042A000809130058430F1F0853038F48130E9F0C8
:1042B000813078F0823019F51BC0803181F0813176
:1042C00018F48830E1F408C08032A9F08034B9F4E1
:1042D00003C081E391E011C08CE291E00EC086E260
:1042E00091E00BC080E291E008C089E191E005C057
:1042F00082E191E002C08CE091E00E944A1E809130
:10430000BC0690E083709070892B39F0CE010D9639
:10431000BE016F5F7F4F0E9400348091BC0680FF1A
:104320001EC085E091E00E944A1E6D857E858F85C6
:1043300098890E94591D83E091E00E944A1E698974
:104340007A898B899C890E94591D83E091E00E94A3
:104350004A1E6D897E898F89988D0E94591D809192
:10436000BC0681FF50C08CEF90E00E944A1E8E0177
:10437000035F1F4F82E7E82E85E0F82EDD24F7016A
:104380006081718182819381248535854685578539
:104390000E94EA359B01AC01F80160817181828144
:1043A00093810E94E935F80160837183828393834E
:1043B000F2E0DF1679F420918A0530918B05409167
:1043C0008C0550918D050E94E935F8016083718359
:1043D00082839383F80160817181828193810E943D
:1043E000591DF2E0DF1621F08AEF90E00E944A1E8C
:1043F000D3940C5F1F4F84E090E0E80EF91E93E029
:10440000D91609F0BCCF8091BC0682FF08C084EFAA
:1044100090E00E944A1E0E94EC170E94E61D8091C7
:10442000BC0683FF08C08FEE90E00E944A1E0E94E7
:104430009B250E94E61D8BEE90E00E944A1E689626
:104440000FB6F894DEBF0FBECDBFCF91DF911F91A5
:104450000F91FF90EF90DF9008950F931F938C01C1
:104460008BE391E00E944A1EC8010E94581E87E318
:1044700091E00E944A1E1F910F9108950F931F9380
:104480008C0187E491E00E944A1EC8010E94581ED8
:1044900083E491E00E944A1E1F910F910895FF92BC
:1044A0000F931F93F82E8B018CE591E00E944A1E1A
:1044B0008F2D0E94E61D8AE591E00E944A1EC801E8
:1044C0000E94581E87E591E00E944A1E1F910F919D
:1044D000FF90089581ED91E00E944A1E80914F0562
:1044E0008230A1F0833028F4882341F08130B9F480
:1044F00008C0833071F0883091F40EC08EEC91E0EA
:1045000002C08BEC91E00E944A1E12C088EC91E040
:10451000FACF85EC91E0F7CF81EC91E0F4CF8CEB12
:1045200091E00E944A1E80914F0586500E94E61D30
:1045300089EB91E00E944A1E809155058A5C0E9499
:10454000E61D80915305813041F0813018F08230B2
:1045500059F406C084EB91E005C08FEA91E002C0F7
:104560008AEA91E00E944A1E80915105882319F43D
:1045700085EA91E002C080EA91E00E944A1E8091A3
:104580005205882319F48BE991E002C086E991E095
:104590000E944A1E80915005813019F481E991E012
:1045A00002C08CE891E00E944A1E8091560581303D
:1045B00041F0813018F0823059F406C088E891E06B
:1045C00005C084E891E002C080E891E00E944A1EA4
:1045D00080915805813029F0813048F0823059F4BB
:1045E00003C08CE791E005C088E791E002C084E752
:1045F00091E00E944A1E80915705882319F082306D
:1046000041F403C080E791E002C08CE691E00E9493
:104610004A1E89E691E00E944A1E809161050E942F
:10462000E61D86E691E00E944A1E60915D0570914C
:104630005E0580915F05909160050E94431D83E6B1
:1046400091E00E944A1E6091590570915A0580912F
:104650005B0590915C050E94431D8FE591E00E94EF
:104660004A1E08951F9382E092E00E944A1E10E0C5
:1046700082E495E0612F0E94E4330E94591D1230BC
:1046800021F080E092E00E944A1E1F5F133081F704
:104690008EEF91E00E944A1E80914E050E94E61D19
:1046A0008AEF91E00E944A1E1F910895CF92DF92F7
:1046B000EF92FF920F931F93DF93CF93CDB7DEB7A7
:1046C0002C970FB6F894DEBF0FBECDBFEE246E015F
:1046D0000894C11CD11C8E2DB6010E94D4288823B9
:1046E00021F487E00E94D1206BC087EF91E00E9407
:1046F0004A1E86E0E81621F0E7E0EE1649F403C012
:1047000084EF91E002C081EF91E00E944A1E04C054
:104710008E2D8A5C0E94E61D8FEE91E00E944A1E5B
:104720008601FF24F80160817181828193810E945A
:10473000591DF2E0FF1619F08DEE91E002C089EEEE
:1047400091E00E944A1EF3940C5F1F4F83E0F8161D
:1047500049F7E394E8E0EE1609F0BDCF83EE91E06F
:104760000E944A1E0EE715E0FF24F8016081718166
:10477000828193810E94591DF2E0FF1619F081EEAB
:1047800091E002C08DED91E00E944A1EF3940C5F0F
:104790001F4F83E0F81649F787ED91E00E944A1E0B
:1047A00060918A0570918B0580918C0590918D05A3
:1047B0000E94591D83ED91E00E944A1E0E943223FF
:1047C0002C960FB6F894DEBF0FBECDBFCF91DF9110
:1047D0001F910F91FF90EF90DF90CF900895FF927F
:1047E0000F931F93CF93DF9389E894E00E944A1EB2
:1047F0008091B8060E94E61D80E794E00E944A1E60
:104800008091BB060E94E61D82E594E00E944A1E4C
:104810008091B9060E94E61D89E394E00E944A1E39
:104820008091B9060E94191E82E394E00E944A1EFC
:104830008091BA060E94E61D8AE194E00E944A1E19
:104840008091BA060E94191E83E194E00E944A1EDC
:104850008091C50690E0969587959695879581708D
:104860000E94E61D82EF93E00E944A1E8091C506D9
:1048700090E056E0969587955A95E1F781700E94F1
:10488000E61D82ED93E00E944A1E90E08091C506ED
:1048900087FD91E0892F0E94E61D82EB93E00E9444
:1048A0004A1E8091BC060E94E61D8CE993E00E949E
:1048B0004A1E8091BC060E94191E84E993E00E9462
:1048C0004A1E6091BD067091BE068091BF06909110
:1048D000C0060E943F1D84E793E00E944A1E60913B
:1048E000C1067091C2068091C3069091C4060E94D1
:1048F0003F1D89E593E00E944A1E8091C5068170A4
:104900000E94E61D8CE393E00E944A1E8091C5063A
:1049100090E045E0969587954A95E1F781700E9471
:10492000E61D81E293E00E944A1E8091C50690E058
:1049300033E0969587953A95E1F781700E94E61DE0
:1049400086E093E00E944A1E8091C50690E024E034
:10495000969587952A95E1F781700E94E61D8AEE6B
:1049600092E00E944A1E8091C6060E94E61D80EDDC
:1049700092E00E944A1E8091C6060E94191E88EC91
:1049800092E00E944A1E6091C7067091C80680910D
:10499000C9069091CA060E943F1D8BEA92E00E94D0
:1049A0004A1E6091CB067091CC068091CD06909105
:1049B000CE060E943F1D8EE892E00E944A1E809122
:1049C000CF060E94E61D8FE692E00E944A1E60918B
:1049D000D1067091D2068091D3069091D4060E94A0
:1049E0003F1D86E592E00E944A1E10E094E6F92EF3
:1049F0006AC084E592E00E944A1E802F8F0D0E94BB
:104A0000E61D82E592E00E944A1E113061F01130ED
:104A100028F0123069F01330E9F415C0688179810B
:104A20008A819B8115C06C857D858E859F8510C090
:104A3000688D798D8A8D9B8D20E030E041E655E4CC
:104A40000E94CA3605C06CA17DA18EA19FA190587D
:104A50000E943F1D8FE492E00E944A1E013041F007
:104A6000013018F0023059F406C08DE492E005C020
:104A70008BE492E002C089E492E00E944A1E113069
:104A800051F0113028F0123049F0133071F409C0A0
:104A90008FE392E008C08DE292E005C08CE192E0E5
:104AA00002C08CE092E00E944A1E88E092E00E94E0
:104AB0004A1E0F5F2496033009F09BCF1F5F14300E
:104AC00031F08AE0F80EC8E8D6E000E092CFDF913E
:104AD000CF911F910F91FF9008951F93182F8BE88E
:104AE00096E00E944A1E133091F014302CF41130DD
:104AF00041F01230B1F408C0143061F0153089F47F
:104B00000CC080E896E00BC085E796E008C082E61E
:104B100096E005C087E596E002C08BE496E00E942F
:104B20004A1E88E496E00E944A1E84EF91E00E94AB
:104B300014171F91089590915B0480915A0489176E
:104B400010F0891B08958058891B089590915D0489
:104B500080915C04891710F0891B0895805C891B83
:104B60000895E0ECF0E08081826080831092C500BF
:104B700080E18093C400E1ECF0E08081806180837B
:104B80008081886080838081806880830895282F59
:104B9000E0915C049E2F9F5F903431F490E004C05C
:104BA0008091320584FD0FC080915D049817C1F398
:104BB000F0E0E853FA4F208390935C048091C100A9
:104BC00080628093C10008951F920F920FB60F92DA
:104BD00011248F939F93EF93FF9380915D04E82FAF
:104BE000F0E0E853FA4F90819093C600982F9F5FB2
:104BF000903409F490E090935D0480915C049817E0
:104C000029F48091C1008F7D8093C100FF91EF91C5
:104C10009F918F910F900FBE0F901F9018959091BC
:104C20005B0480915A04891711F48FEF0895E92FDE
:104C3000F0E0E85FF94F8081E92FEF5FE03809F499
:104C4000E0E0E0935B04089580915A0480935B0454
:104C500008951F920F920FB60F9211242F933F9336
:104C60004F935F936F937F938F939F93AF93BF9374
:104C7000EF93FF939091C6009F3361F0903428F436
:104C8000983119F1913221F514C09034C1F09E375A
:104C9000F9F406C09FB7F89480913205816005C091
:104CA0009FB7F894809132058260809332059FBF50
:104CB00020C09FB7F894809132058860F6CF9FB7E7
:104CC000F894809132058062F0CF0E94291211C0C1
:104CD000E0915A042E2F2F5F203809F420E08091B4
:104CE0005B04281731F0F0E0E85FF94F90832093E0
:104CF0005A04FF91EF91BF91AF919F918F917F9156
:104D00006F915F914F913F912F910F900FBE0F9038
:104D10001F901895882311F484E00895813011F0D4
:104D200080E1089588E00895882311F480E20895D1
:104D3000813011F080E8089580E40895882311F40B
:104D400082E00895813011F080E1089584E00895B3
:104D500080E090E00E944A04893011F020E00CC00D
:104D600088E896E061E070E04DE450E00E94B6040F
:104D700020E0892B09F021E0822F08958EEA93E04C
:104D800060E00E945204089580E093E060E00E9499
:104D9000520481E593E060E00E945204089580E0AF
:104DA00090E069E00E94520481E090E068E876E0DB
:104DB0004DE450E00E946D040895CF92DF92EF928F
:104DC000FF920F931F93082F6A017B01CB01BA0159
:104DD00020E030E040E050E00E94C336882314F425
:104DE00084E00EC1043608F459C0045690E0033044
:104DF00008F04BC0913089F0913030F09230D1F012
:104E0000933009F0F8C031C0E02FF0E0EE0FFF1F43
:104E1000EE0FFF1FE857F94F08C0E02FF0E0EE0F4C
:104E2000FF1FEE0FFF1FEC56F94FC082D182E282C6
:104E3000F382E1C010E0000F111F000F111F005698
:104E4000194FC701B60120E030E040E752E40E946C
:104E5000013920E030E040E752E40E940139F801D6
:104E60006083718382839383C6C0E02FF0E0EE0FEE
:104E7000FF1FEE0FFF1FE455F94FD701C601B058D1
:104E800080839183A283B383B6C00A3008F4B7C08D
:104E90009F5F943009F4B3C00A50A9CFC701B6018F
:104EA0000E94CF390E943737E02FF0E0EC31F10556
:104EB00008F0A5C0EC5CFF4FEE0FFF1F0590F491CA
:104EC000E02D0994633010F486E09AC06093B80630
:104ED00092C06093BB068FC06093B90602C0609316
:104EE000BA060E94073187C0662321F08091C5066B
:104EF000846009C08091C5068B7F05C0662331F0B0
:104F00008091C50680648093C50675C08091C506F2
:104F10008F7BF9CF662321F08091C5068068F3CF9F
:104F20008091C5068F77EFCF6093BC0664C0C092B6
:104F3000BD06D092BE06E092BF06F092C0065BC0EE
:104F4000C092C106D092C206E092C306F092C40697
:104F500052C0662321F08091C5068160D4CF809134
:104F6000C5068E7FD0CF662341F08091C50684FDB3
:104F700002C08AE045C08062C6CF8091C5068F7DA1
:104F8000C2CF662321F08091C506886003C080915E
:104F9000C506877F8093C5060E942D0F2CC066230F
:104FA00021F08091C5068061AECF8091C5068F7CCF
:104FB000AACF6093C6061FC0C092C706D092C8068B
:104FC000E092C906F092CA0616C0C092CB06D092F3
:104FD000CC06E092CD06F092CE060DC06093CF06CF
:104FE0001092D00608C0C092D106D092D206E092AC
:104FF000D306F092D4060E94CF2680E001C083E061
:105000001F910F91FF90EF90DF90CF9008958AE06D
:105010008093B80689E18093BB061092B90610927E
:10502000BA0683E08093BC068AE097EDA3EABCE36E
:105030008093BD069093BE06A093BF06B093C006B2
:105040008FE692E1A3E0BBE38093C1069093C20692
:10505000A093C306B093C4061092C60680E090E009
:10506000A8ECB1E48093C7069093C806A093C90644
:10507000B093CA0620E030E04AEF53E42093CB0619
:105080003093CC064093CD065093CE068AEF90E045
:105090009093D0068093CF0680E090E0A0E8BFE335
:1050A0008093D1069093D206A093D306B093D406F2
:1050B0001092C50680E090E0AAE7B3E480938806EA
:1050C00090938906A0938A06B0938B0680938C06F2
:1050D00090938D06A0938E06B0938F0680939006D2
:1050E00090939106A0939206B09393062093940612
:1050F0003093950640939606509397062093980612
:105100003093990640939A0650939B0620939C06F1
:1051100030939D0640939E0650939F0680E090EA50
:10512000ACE0B7E48093A0069093A106A093A206FA
:10513000B093A3068093A4069093A506A093A60619
:10514000B093A7068093A8069093A906A093AA06F9
:10515000B093AB0680E090E0A8E4B3EC8093AC069B
:105160009093AD06A093AE06B093AF068093B006C1
:105170009093B106A093B206B093B3068093B406A1
:105180009093B506A093B606B093B7060E94CF26BB
:1051900008959DE0899FC001112480509E4F4CE0EE
:1051A00050E00E946D0408950F931F93CF93DF93F7
:1051B000162F072F9DE0899FE0011124C050DE4F7C
:1051C000862F972FBE014CE050E00E94B604892B39
:1051D00011F081E00FC0E12FF02F8CE0DF011D9274
:1051E0008A95E9F7CE01612F702F4CE050E00E94C4
:1051F0006D0480E0DF91CF911F910F910895EF92A0
:10520000FF921F93DF93CF93CDB7DEB72C970FB6E6
:10521000F894DEBF0FBECDBF0E94A826882371F48C
:1052200087E00E94D1200E9407280E94C4268EEAAF
:1052300093E060E00E9452040E94EF2310E07E01A0
:105240000894E11CF11C812FB7010E94D428882307
:1052500019F487E00E94D1201F5F1830A1F72C9627
:105260000FB6F894DEBF0FBECDBFCF91DF911F9177
:10527000FF90EF900895EF92FF920F931F93DF93AB
:10528000CF93CDB7DEB72C970FB6F894DEBF0FBE25
:10529000CDBFFE0131968CE0DF011D928A95E9F7C2
:1052A00000E012E07F01C801B7014CE050E00E942D
:1052B0006D04035F1F4FB2E00B351B07A1F72C965F
:1052C0000FB6F894DEBF0FBECDBFCF91DF911F9117
:1052D0000F91FF90EF900895BC018EEA93E040E5B6
:1052E00050E00E946D040895CF93DF93EC016EEAC5
:1052F00073E040E550E00E94B604892B11F081E094
:1053000009C018828EEA93E0BE0140E550E00E9499
:105310006D0480E0DF91CF91089591E5899FC001F0
:10532000112480509D4F40E550E00E946D04089587
:105330000F931F93CF93DF938B0191E5899FE0013A
:105340001124C050DD4FCB01BE0140E550E00E946A
:10535000B604892B11F081E009C0F8011082CE015A
:10536000B80140E550E00E946D0480E0DF91CF91EC
:105370001F910F910895239A259A80E28093B3009C
:10538000089580E28093B30008950895DF92EF922C
:10539000FF920F931F93D82E7A018B0180913005D5
:1053A000823009F44FC00E94BD1E0E94F71FDD200D
:1053B00021F480E28093B30045C083E88093B0007D
:1053C0008091B10087608093B100C801B70120E0EF
:1053D00030E040E050E00E94C33688235CF40F2E9A
:1053E000F0E0EF2EF0E0FF2EF0E00F2FF0E01F2FA7
:1053F000F02D14C0C801B70120E030E044EB52E4C6
:105400000E94C638181654F40F2EF0E0EF2EF0E08C
:10541000FF2EF4EB0F2FF2E41F2FF02DC801B70180
:1054200027E13CE641E45EEB0E94013920E030E0F8
:1054300040E052E40E94EA350E94A0370E943737CC
:105440006093B3001F910F91FF90EF90DF9008954C
:105450008091C50682FF02C0289A01C028988091D9
:1054600030058C70A1F08091FE048093E604809159
:10547000FD048093E5048091B806880F84508195DF
:105480008093E40480916F00826080936F000895A0
:105490001F920F920FB60F9211248F939F939BB17F
:1054A0008091FD048C71937E892B8BB915BC9F91E3
:1054B0008F910F900FBE0F901F9018958AB18C613D
:1054C0008AB9209A8AB1806E8AB9E1E8F0E08081D9
:1054D0008F7E8083808188608083E0E8F0E0808137
:1054E0008C7F808380818F708083EEE6F0E0808106
:1054F000887F808314BC15BC80818160808308957F
:10550000CF93DF93C0910005D09101052097B9F0AA
:1055100081E08093050520911B0530911C05409189
:105520001D0550911E05CA01B9010E940139698B00
:105530007A8B8B8B9C8B1092010510920005DF916A
:10554000CF9108952F923F924F925F926F927F92E8
:105550008F929F92AF92BF92CF92DF92EF92FF9283
:105560000F931F93DF93CF93CDB7DEB7E9970FB6B5
:10557000F894DEBF0FBECDBF80913005807709F46F
:1055800026C660911B0570911C0580911D059091A8
:105590001E0520E030E040E050E00E94C336882342
:1055A00009F015C61BC68091000590910105892B55
:1055B00009F07EC20E94A017909301058093000518
:1055C000892B09F40BC680910505882319F01092E8
:1055D0000505CAC0809104058F5F8093040585305E
:1055E00011F410920405E091040521E1E29FF0011D
:1055F0001124E25AFB4FF0930305E093020500915A
:10560000000510910105D8018C91808311962D9190
:105610003D914D915C91149773E0220F331F441F0D
:10562000551F7A95D1F7218332834383548315968E
:105630002D913D914D915C91189763E0220F331F9E
:10564000441F551F6A95D1F72583368347835087BA
:1056500019962D913D914D915C911C9793E0220FED
:10566000331F441F551F9A95D1F7218732874387EF
:1056700054871D962D913D914D915C91509783E0FB
:10568000220F331F441F551F8A95D1F72587368770
:105690004787508B1D966D917D918D919C91509770
:1056A0000E94633760930605709307058093080591
:1056B00090930905F80125A136A147A150A50E94A4
:1056C000CA369B01AC0160930A0570930B05809369
:1056D0000C0590930D0560E070E080EA9FE30E9466
:1056E000CA3660930E0570930F0580931005909352
:1056F000110580E090E0A0E0B0E080931205909367
:105700001305A0931405B09315058091300580779B
:10571000E1F0209123053091240540912505509119
:10572000260520931B0530931C0540931D055093BF
:105730001E05CA01B9010E940139D80151966D9325
:105740007D938D939C9354970FC0F8016189728962
:10575000838994890E948E3960931B0570931C0580
:1057600080931D0590931E0580E090E0A0E0B0E0DE
:105770008093170590931805A0931905B0931A0507
:105780000091000510910105D80191968D919D9190
:105790000D90BC91A02D88AB99ABAAABBBAB60E0E0
:1057A00070E080E09FE328A939A94AA95BA90E947B
:1057B000CA361B012C0180913005807709F456C050
:1057C000B2E0B0931605F801A5A0B6A0C7A0D0A47A
:1057D0006188728883889488C201B101A401930111
:1057E0000E9401399B01AC01C601B5010E94E93557
:1057F0007B018C0120E030E040E050E00E94C336A5
:105800008823FCF468A979A98AA99BA920E030E043
:1058100040E050EC0E940139A60195010E94013937
:105820009B01AC01C401B3010E94EA350E948E398C
:105830006093230570932405809325059093260596
:1058400037C1E0921705F0921805009319051093DF
:105850001A0580E090E0A0E0B0E0809323059093EB
:105860002405A0932505B093260522C110921605A4
:10587000F80185A196A1A7A1B0A5809327059093D3
:105880002805A0932905B0932A050E941F195B01E2
:105890006C016093230570932405809325059093F4
:1058A0002605A60195010E9401393B014C0120917A
:1058B00000053091010539AF28AFD90195968D913A
:1058C0009D910D90BC91A02D8B8F9C8FAD8FBE8F25
:1058D000F9016189728983899489A40193010E94E5
:1058E000E9359B01AC01C201B1010E9401399B0164
:1058F000AC016B8D7C8D8D8D9E8D0E94EA3520E0F4
:1059000030E040E05FE30E9401397B018C0120E040
:1059100030E040E050E00E94C63818160CF0B4C0E9
:10592000C801B7012B8D3C8D4D8D5E8D0E94C33615
:1059300088230CF095C0A8ADB9AD5D966D917D91B1
:105940008D919C919097A40193010E94E9359B0150
:10595000AC01C201B1010E94013960932B05709323
:105960002C0580932D0590932E05A80197010E9488
:10597000C33688230CF047C0E8ADF9ADE58CF68C52
:10598000078D10A1C801B7010E948E3960931F05D1
:10599000709320058093210590932205A8ADB9ADA1
:1059A0005196AD90BD90CD90DC905497C601B50155
:1059B000A80197010E94C336882321F4B1E0B09377
:1059C000160576C0C801B701A60195010E94E93508
:1059D0009B01AC01C201B1010E9401399B01AC01E4
:1059E00060912705709128058091290590912A05DD
:1059F0000E94E93560932705709328058093290557
:105A000090932A0555C0E0922705F092280500934F
:105A1000290510932A05E0922B05F0922C0500939E
:105A20002D0510932E05E8ADF9AD21A132A143A1BA
:105A300054A1CA01B9010E94EA35A80197010E9448
:105A40000139A40193010E94EA350E948E396093C6
:105A50001F0570932005809321059093220528C08F
:105A6000F2E0F093160580911B0590911C05A09122
:105A70001D05B0911E0580931F0590932005A093EE
:105A80002105B093220514C080E090E0A0E0B0E0D2
:105A90008093270590932805A0932905B0932A05A4
:105AA000A0921F05B0922005C0922105D092220538
:105AB0008091FB04B6E08B9FD0011124AD54BB4F05
:105AC000B9AFA8AF8091040512968C93E0910005C0
:105AD000F0910105FA8FE98F85A196A1A7A1B0A544
